S019000063616E2D6272696467652D656E763230302E7372656337
S1130000FDC0000017C100000C94490913C1000091
S113001011C100000FC100000DC100000BC10000A0
S113002009C1000007C1000005C1000003C10000B0
S113003001C10000FFC00000C4C60000FBC00000F6
S1130040F9C00000F7C00000F5C00000F3C00000D4
S11300500C949509EFC00000EDC00000EBC0000057
S1130060E9C00000E7C00000E5C00000E3C00000F4
S1130070E1C00000DFC00000DDC00000DBC0000004
S1130080D9C00000D7C00000D5C00000D3C0000014
S1130090D1C00000CFC00000CDC00000CBC0000024
S11300A0C9C00000C7C00000C5C00000C3C0000034
S11300B0C1C00000BFC00000BDC00000BBC0000044
S11300C0B9C00000B7C00000B5C00000B3C0000054
S11300D0B1C00000AFC00000ADC00000ABC0000064
S11300E0A9C00000A7C00000A5C00000A3C0000074
S11300F0A1C000009FC000009DC000009BC0000084
S11301000C94FC080C94220995C0000093C00000D4
S113011091C000008FC000008DC000008BC00000A3
S113012089C0000087C0000085C0000083C00000B3
S113013081C000007FC000007DC000007BC00000C3
S113014079C0000077C0000075C0000073C00000D3
S113015071C000006FC000006DC000006BC00000E3
S113016069C0000067C0000065C0000063C00000F3
S113017061C000005FC000005DC000005BC0000003
S113018059C0000057C0000055C0000053C0000013
S113019051C000004FC000004DC000004BC0000023
S11301A049C0000047C0000045C0000043C0000033
S11301B041C000003FC000003DC000003BC0000043
S11301C039C0000037C0000035C0000033C0000053
S11301D031C000002FC000002DC000002BC0000063
S11301E029C0000027C0000025C0000023C0000073
S11301F021C00000FDC100001DC0000011241FBE6D
S1130200CFEFCDBFDFE2DEBF11E2A0E0B0E2E6E96E
S1130210F3E102C005900D92AA31B107D9F725E2A6
S1130220AAE1B1E201C01D92A83BB207E1F7C5D52E
S11302300C94C909E5CECF93DF93DC01942F9F7012
S11302409A3030F0FD013196995C12969C9305C06A
S1130250FD013196905D12969C93DB01CA01807F6B
S11302609927AA27BB27689413F8B695A79597955D
S113027087951694D1F78A3028F0EF012197895C8D
S1130280808304C0EF012197805D8083852F8F7068
S11302908A3018F0895C888302C0805D8883DF918E
S11302A0CF910895AF92BF92CF92DF92EF92FF92D7
S11302B00F931F93CF93DF93CDB7DEB72B97CDBFAB
S11302C0DEBFC982DA82EB82FC820D831E832F8318
S11302D0388749875A876B87EE2069F1DE011496C7
S11302E05C01AC014F5F5F4FEA948E010E0D111D4E
S11302F00B5F1F4F9D91292F22952F702A3028F0D4
S1130300BA01295CF501208304C0BA01205DF5011E
S113031020839F709A3020F0995CFB01908303C086
S1130320905DFB019083F2E0AF0EB11C4E5F5F4F16
S1130330A017B107F9F62B96CDBFDEBFDF91CF91A1
S11303401F910F91FF90EF90DF90CF90BF90AF90EF
S11303500895CF93DF93EC01DC0113969C01265F93
S11303603F4FE0E09D91E927F0E0E050F04EE0815E
S1130370A217B307B9F7EA87DF91CF9108950895DB
S113038080933821282F2F7030E04091C60450917B
S1130390C7048823E4F464E8629FC001639F900D5E
S11303A0112485589E4D8093342190933521C901A1
S11303B082959295907F9827807F982708969A0136
S11303C0280F391F2093362130933721089564E88C
S11303D0629FC001639F900D1124875C9E4D8093A2
S11303E034219093352122953295307F3227207F16
S11303F03227240F351F2093362130933721089557
S11304001F93CF93DF93D82F162FC42FB9DFE0911A
S11304103621F09137211182E0913621F091372174
S1130420DD23A4F01082E0913621F091372111836D
S1130430E0913621F0913721128213828091342188
S1130440909135218483958340E014C082E08083B9
S1130450E0913621F09137211183E0913621F0911A
S11304603721128213828091342190913521848323
S113047095834C2FFC01E05CFF4F40833196108242
S113048081E0DF91CF911F91089520E030E0A0EC4E
S1130490B4E01696ED91FC911797C9018295929557
S11304A0907F9827807F9827E80FF91F118616966A
S11304B04D915C911797FA01E80FF91F11822F5F94
S11304C03F4F2530310529F708958091202480FF7E
S11304D004C088E38093440002C0109244008091D9
S11304E0202483FF06C0E0E4F0E0848181608483FB
S11304F005C0E0E4F0E08481836084836CD072D032
S1130500E0ECF4E080818F77808380818068808351
S113051010922B2110922721109229211092282128
S11305208091202480FF04C080818F7B808305C05C
S1130530E0ECF4E080818064808348E068E480E853
S11305405FDF48E068E480E05BDFE0ECF4E08085B6
S1130550806480878181816081830895CF93DF9354
S1130560809320242FB7F894C0ECD1E082E08A87EE
S1130570EAE1F0E0E491A0ECB4E0DA96EC93DA97E7
S1130580EBE1F0E0E491DB96EC93DB971A868EECDA
S113059093E28E7F16968D939C93179784E18C93A8
S11305A08091202482FF04C083E08093C8040BC0A0
S11305B08091202481FF04C082E08093C80403C09A
S11305C081E08093C8042FBF81E080932A217DDFDE
S11305D0DF91CF910895E0ECF4E08085837080870B
S11305E011860895E0ECF4E08FEF82878487089504
S11305F01F920F920FB60F9211242F933F934F9394
S11306005F936F937F938F939F93AF93BF93EF9376
S1130610FF938091CA04882344F48091C8048823FA
S113062024F480E88093CA04AADE8091CA0486FF79
S113063006C080E48093CA0410922B21C0D3809119
S1130640CA0485FF15C080E28093CA0480912721E3
S1130650882321F084E080932B2109C08091C30476
S1130660811102C081E001C083E080932B21A8D3D3
S11306708091CA0484FF14C0E0ECF4E080E1828736
S113068082E080932B21109227211382FEDE48E022
S113069068E480E8B5DE48E068E480E0B1DE6FDE5F
S11306A0FF91EF91BF91AF919F918F917F916F9146
S11306B05F914F913F912F910F900FBE0F901F901C
S11306C01895E0ECF8E092819283838382818823F9
S11306D0ECF78091C30808951F93CF93DF93C0E490
S11306E0D6E010E11E8380ECECDF1D83DF91CF9117
S11306F01F9108951F93CF93DF93C0E6D6E010E1D6
S11307001E8380ECDEDF1D83DF91CF911F9108955E
S11307101F93CF93DF93C0E2D6E018E01E8380ECF2
S1130720D0DF1D83DF91CF911F9108951F93CF9345
S1130730DF93182FD62FC42F85E0C3DF812FC1DFAD
S11307408D2FBFDF8C2FBDDFDF91CF911F910895D7
S11307501F93CF93DF93213039F4C0E4D6E010E146
S11307601E83E4DF1D8311C0223039F4C0E6D6E0D5
S113077010E11E83DBDF1D8308C0233031F4C0E2A7
S1130780D6E018E01E83D2DF1D83DF91CF911F9145
S113079008951F93CF93DF93C0E4D6E010E11E8346
S11307A0C5DF1D83DF91CF911F9108951F93CF93D0
S11307B0DF93C0E6D6E010E11E83B8DF1D83DF912E
S11307C0CF911F9108951F93CF93DF93C0E2D6E09A
S11307D018E01E83ABDF1D83DF91CF911F91089535
S11307E0813039F018F0823039F0089581E869CF0A
S11307F0089582E866CF089584E863CF08951F932F
S1130800CF93DF93C0E4D6E010E11E83E9DF1D83BC
S1130810DF91CF911F9108951F93CF93DF93C0E68B
S1130820D6E010E11E83DCDF1D83DF91CF911F91A1
S113083008951F93CF93DF93C0E2D6E018E01E83A0
S1130840CFDF1D83DF91CF911F9108950F931F93E5
S1130850CF938B01880F805C34DFF8018081918114
S11308609695879596958795969587952ADFF801AD
S113087080818295880F807E24DF80E022DF80E003
S113088020DFF80182818F701CDFF80182818823C8
S113089059F0C0E0F801EC0FF11D838112DFCF5F46
S11308A0F8018281C817B0F3CF911F910F91089579
S11308B01F93CF93DF93C0E4D6E010E11E83C6DF1D
S11308C01D83DF91CF911F9108951F93CF93DF93E1
S11308D0C0E6D6E010E11E83B9DF1D83DF91CF911E
S11308E01F9108951F93CF93DF93C0E2D6E018E0E1
S11308F01E83ACDF1D83DF91CF911F9108950F9369
S11309001F93CF93DF938B01DCDE80E0DADE98E087
S1130910899FE001112480E0D4DE8295869587705A
S1130920C82B80E0CEDE80E0CCDEF801C083D1832A
S113093080E0C7DE8F70F8018283882361F0C0E015
S113094080E0BFDEF801EC0FF11D8383CF5FF80177
S11309508281C817A8F381E0DF91CF911F910F9195
S113096008951F93CF93DF93C0E4D6E010E11E8374
S1130970C6DF1D83DF91CF911F9108951F93CF93FD
S1130980DF93C0E6D6E010E11E83B9DF1D83DF915B
S1130990CF911F9108951F93CF93DF93C0E2D6E0C8
S11309A018E01E83ACDF1D83DF91CF911F91089562
S11309B0413011F4D6CF0895423011F4DFCF0895B9
S11309C0433011F4E8CF089580E008950F931F9306
S11309D0CF93DF93082FC0E4D6E010E11E8383E0B9
S11309E070DE802F6EDE80E06CDE1D83DF91CF91A0
S11309F01F910F9108950F931F93CF93DF93082FA7
S1130A00C0E6D6E010E11E8383E05BDE802F59DE72
S1130A1080E057DE1D83DF91CF911F910F910895E0
S1130A200F931F93CF93DF93082FC0E2D6E018E013
S1130A301E8383E046DE802F44DE80E042DE1D8399
S1130A40DF91CF911F910F910895613011F4BECFC2
S1130A500895623011F4CFCF0895E2CF0895FF9244
S1130A600F931F93CF93DF93F82E062FC0E4D6E0A5
S1130A7010E11E8382E025DE8F2D23DE802F21DE10
S1130A801D83DF91CF911F910F91FF900895FF92E5
S1130A900F931F93CF93DF93F82E062FC0E6D6E073
S1130AA010E11E8382E00DDE8F2D0BDE802F09DE28
S1130AB01D83DF91CF911F910F91FF900895FF92B5
S1130AC00F931F93CF93DF93F82E062FC0E2D6E047
S1130AD018E01E8382E0F5DD8F2DF3DD802FF1DD3C
S1130AE01D83DF91CF911F910F91FF9008951F9364
S1130AF0CF93DF93E0E4F6E090EA918390E492836D
S1130B00A0E6B6E092E011969C931197909381062B
S1130B1098E0918320E1218311962C9390932106F0
S1130B2090ED9093C008662309F47EC0C82F80E13D
S1130B30809345068093650688E0809325068FE1BF
S1130B4093E00197F1F700C00000C6DDD3DDE0DDDE
S1130B508FE39FE10197F1F700C000008FE036DFDB
S1130B60D82F8FE048DF182F8FE05ADFD295D69523
S1130B70D770D43009F05AC01295169517701430F6
S1130B8009F056C0829586958770843009F052C06A
S1130B908FE193E00197F1F700C0000060E08AE282
S1130BA05EDF60E08AE273DF60E08AE288DF67EE9E
S1130BB089E255DF67EE89E26ADF67EE89E27FDF6B
S1130BC061E088E24CDF61E088E261DF61E088E2B5
S1130BD076DF44E064E080E6DCDD44E064E080E667
S1130BE0E5DD44E064E080E6EEDD63EA8BE237DFD6
S1130BF063EA8BE24CDF63EA8BE261DF4C2F60EE49
S1130C008FE0C7DD4C2F60EE8FE0D0DD4C2F60EE1F
S1130C108FE0D9DD82E0809366068093860688E0C3
S1130C208093460681E007C081E005C080E003C0F0
S1130C3080E001C080E0DF91CF911F9108954130A1
S1130C4011F40DCF0895423011F421CF089537CF18
S1130C500895CF93DF93E0E5F0E0808182608083A4
S1130C60818181FFFDCFA0E5B0E016968C911697A7
S1130C70846016968C931697C0E6D0E080E88D8346
S1130C808BEB8E8380EC91E022E0FC012287EDE186
S1130C90F0E0E491EA83ECE1F0E0E491EB83FC0121
S1130CA0128681E08883E0E7F0E085E1808383E0D9
S1130CB0818394E5938393E5948390E5958380936E
S1130CC021068BEC12968C9312978C9188608C93EE
S1130CD0E0E5F0E0818183FFFDCFE0E5F0E082EC28
S1130CE08583808180618083818184FFFDCF88ED4D
S1130CF084BF84E080934000E0E0FAE081E08083F8
S1130D0093E1918321E030E020A731A726A337A304
S1130D108093810693E090934906E0E6F6E02FE0A5
S1130D20218782872BE1208B30E23387258BE0E417
S1130D30F8E0808320E83CE026A337A39683E0E034
S1130D40F8E0808320E03DE726A337A396838093D1
S1130D502606C8E7D0E0888183FF04C061E080E014
S1130D60C6DE03C061E080E0C2DE81110AC0FFEF8D
S1130D7029EF80E0F15020408040E1F700C00000FE
S1130D80EACF25E888ED90E0A2EAB0E01BBEFD01C1
S1130D9084BF20832BBE80E0E1DB93E088ED08B6BE
S1130DA018BE84BF909380008091820081FDFCCFA7
S1130DB008BE7894DF91CF9108954BDFFFCF08955B
S1130DC008951F920F920FB60F9211248F939F9341
S1130DD0A895809100219091012101978093002191
S1130DE0909301218091002190910121892B19F484
S1130DF082E0809326069F918F910F900FBE0F90F3
S1130E001F90189590911E2180911F219817F1F041
S1130E1080E3DCDD83FD1AC060911F2181E0860F31
S1130E2080931F218BE0689FB0011124685F7A4D85
S1130E3080E03EDD80E0E3DC90911F2180911E2163
S1130E40981304C010921E2110921F210895EF924E
S1130E50FF920F931F93CF93DF93CDB7DEB72B97FA
S1130E60CDBFDEBFE982FA820B831C832D833E83D0
S1130E704F83588769877A878B87A0911E2181E0E9
S1130E808A0F80931E219BE0A99FD0011124A85FA3
S1130E90BA4D9BE0FE01319601900D929A95E1F7CF
S1130EA0803118F08FE080931E21ACDF2B96CDBFEC
S1130EB0DEBFDF91CF911F910F91FF90EF900895C6
S1130EC090911C2180911D219817F1F080E393DD0E
S1130ED083FD1AC060911D2181E0860F80931D213E
S1130EE08BE0689FB0011124685A7B4D80E0EDDCF3
S1130EF080E092DC90911D2180911C21981304C004
S1130F0010921C2110921D210895EF92FF920F93CD
S1130F101F93CF93DF93CDB7DEB72B97CDBFDEBF43
S1130F20E982FA820B831C832D833E834F83588787
S1130F3069877A878B87A0911C2181E08A0F80932F
S1130F401C219BE0A99FD0011124A85ABB4D9BE012
S1130F50FE01319601900D929A95E1F7803118F0D7
S1130F608FE080931C21ACDF2B96CDBFDEBFDF91D9
S1130F70CF911F910F91FF90EF900895AF92BF9280
S1130F80CF92DF92EF92FF920F931F93CF93DF9351
S1130F90CDB7DEB7A397CDBFDEBFB82E88E1E2E0C0
S1130FA0F1E2DE011C9601900D928A95E1F722E0B0
S1130FB0B21203C082E38C8705C083E0B81202C07A
S1130FC083E38C876B2D8CE240DDA82E837009F4BB
S1130FD0E5C0A1FE0CC04B2DBE016F5F7F4F84E9BD
S1130FE0E7DC2B2D40E062E08CE2B2DB0BC04B2D42
S1130FF0BE016F5F7F4F80E9DBDC2B2D40E061E0B9
S11310008CE2A6DB89819A818B3525E09207A1F0D9
S113101028F4823F21E0920759F08AC08E3925E0F6
S1131020920709F453C08C3B25E0920739F180C044
S11310308E8180932121CEC08C8190E0880F991FEE
S1131040880F991F2D812295269526952370822B32
S113105080932421909325212091242130912521CE
S1131060ADECBCEC87D1969587959695879596952A
S113107087958093242190932521ACC0898584FD94
S113108010C02C8130E0220F331F220F331F9D81AB
S11310909295969596959370292B209322213093BF
S11310A023212091222130912321369527953695AD
S11310B027952C8320912221309123212295220FE0
S11310C0220F207C2D838370898784C08EE08E83D9
S11310D0809124219091252146EE489F9001499FBB
S11310E0300D11243695279536952795ABE7B4E155
S11310F041D19C01369527950024880F991F001C27
S1131100880F991F001C892F902D8F7080668F8304
S113111088858770220F220F220F282B2887CE0163
S1131120019617D989819A818C3B9A40B9F152C0B2
S11311308C3B9A4099F14EC0E980FA800B811C8166
S11311402D813E814F81588569857A858B85DDDEC9
S11311500CC0E980FA800B811C812D813E814F8176
S1131160588569857A858B8572DE8091262188234E
S1131170A9F049815A8160E070E0CE010E965BD8F7
S1131180C980DA80EB80FC800D811E812F81388537
S113119049855A856B85CE01429684D88A2D807AFA
S11311A0B1F06B2D8DE251DC182F807C21F04B2D9A
S11311B060E08DE244DD112319F082E0809325067E
S11311C06A2D607E21F02B2D40E08CE2C1DA109272
S11311D0202104C081E0B812BCCFAECFA396CDBF0E
S11311E0DEBFDF91CF911F910F91FF90EF90DF90C1
S11311F0CF90BF90AF9008951F920F920FB60F92A9
S113120011242F933F934F935F936F937F938F9307
S11312109F93AF93BF93EF93FF9381E0809320213B
S1131220ADDEFF91EF91BF91AF919F918F917F912F
S11312306F915F914F913F912F910F900FBE0F903F
S11312401F9018951F920F920FB60F9211242F938F
S11312503F934F935F936F937F938F939F93AF933A
S1131260BF93EF93FF9381E08093202182E086DE99
S1131270FF91EF91BF91AF919F918F917F916F916A
S11312805F914F913F912F910F900FBE0F901F9040
S113129018951F920F920FB60F9211242F933F931C
S11312A04F935F936F937F938F939F93AF93BF936A
S11312B0EF93FF9381E08093202183E05FDEFF9131
S11312C0EF91BF91AF919F918F917F916F915F91BA
S11312D04F913F912F910F900FBE0F901F90189533
S11312E090911A2180911B219817F1F080E398DBEB
S11312F083FD1AC060911B2181E0860F80931B211E
S11313008BE0689FB00111246F5D7B4D80E0EADAC9
S113131080E08FDA90911B2180911A21981304C0E8
S113132010921A2110921B2108951F920F920FB64A
S11313300F9211242F933F934F935F936F937F9357
S11313408F939F93AF93BF93EF93FF935BDDB8DDD0
S1131350C7DFFF91EF91BF91AF919F918F917F91E3
S11313606F915F914F913F912F910F900FBE0F900E
S11313701F901895A29FB001B39FC001A39F700D49
S1131380811D1124911DB29F700D811D1124911D89
S10913900895F894FFCF5C
S113139600858F0A9B1E1491B3363CB928ADA7224B
S11313A6E3666CE978FDF77250D5DF5ACB4E44C13B
S11313B643C6CC49D85D57D2F0757FFA6BEEE4612B
S11313C6A0252FAA3BBEB43113969C19880D07821B
S11313D68603098C1D98921735B0BA3FAE2B21A40B
S11313E665E0EA6FFE7B71F4D65359DC4DC8C247FB
S11313F6C5404ACF5EDBD15476F3F97CED6862E7EB
S113140626A3A92CBD3832B795101A9F0E8B8104DA
S1131416890C068312979D183ABFB530A1242EABCA
S11314266AEFE560F1747EFBD95C56D342C7CD48BA
S1131436CA4F45C051D4DE5B79FCF673E2676DE8AA
S113144629ACA623B2373DB89A1F159001848E0B9A
S11314560F8A800594111B9EBC3933B627A2A82D8A
S1131466EC6963E677F2F87D5FDAD055C4414BCE7A
S11314764CC9C346D75258DDFF7A70F564E1EB6E6A
S1131486AF2A20A534B1BB3E1C9993168702088D5A
S11314960100317C2020207C2020202020202020B8
S10D14A620202020202020200A002E
S9030000FC
