S31508000000F00B0020ED01000881220008F520000809
S315080000107D220008E10400087123000800000000A2
S315080000200000000000000000000000006523000832
S315080000302D05000800000000852200086923000835
S31508000040070200080702000807020008070200085E
S31508000050070200080702000807020008070200084E
S31508000060070200080702000807020008070200083E
S31508000070070200080702000807020008070200082E
S31508000080070200080702000807020008FD04000826
S31508000090E5040008F1040008070200080702000842
S315080000A007020008070200080702000807020008FE
S315080000B007020008070200080702000807020008EE
S315080000C007020008070200080702000807020008DE
S315080000D007020008070200080702000807020008CE
S315080000E007020008070200080702000800000000CF
S315080000F000000000000000000000000000000000F2
S3150800010000000000000000000702000807020008BF
S31508000110070200080702000807020008070200088D
S31508000120070200080702000807020008070200087D
S315080001300702000800000000000000002105000872
S315080001400905000815050008070200080702000847
S3150800015000F002F800F03AF80AA090E8000C824491
S315080001608344AAF10107DA4501D100F02FF8AFF26E
S31508000170090EBAE80F0013F0010F18BFFB1A43F077
S3150800018001031847C8270000E8270000103A24BFD3
S3150800019078C878C1FAD8520724BF30C830C144BFDE
S315080001A004680C6070470000002300240025002620
S315080001B0103A28BF78C1FBD8520728BF30C148BFBC
S315080001C00B6070471FB51FBD10B510BD00F026F9AE
S315080001D01146FFF7F7FF02F0ABF900F044F903B454
S315080001E0FFF7F2FF03BC00F04BF90000094880470F
S315080001F009480047FEE7FEE7FEE7FEE7FEE7FEE7FB
S31508000200FEE7FEE7FEE7FEE704480549054A064B12
S31508000210704700006D23000851010008F005002012
S31508000220F00B0020F0070020F007002053EA020C2C
S3150800023000F069802DE9F04B4FF00006002B1FBF38
S31508000240B3FA83F503FA05F424FA05F65E4012BFFD
S315080002501643B2FA82F502FA05F4C5F120051EBF67
S3150800026022FA05FC44EA0C04203556EA044C4FEA07
S31508000270144418BF641C4FF000084FF00009904260
S3150800028071EB030C39D3002919BFB1FA81F701FACA
S3150800029007F6B0FA80F700FA07F6C7F120071EBF7F
S315080002A020FA07FC46EA0C062037B6FBF4FCA7EB57
S315080002B00507103F07F01F0BCBF120062CFA06F6B0
S315080002C00CFA0BFB44BFB3460026202FA4BF5E469C
S315080002D04FF0000B5BEA060C08BF4FF0010B19EB59
S315080002E00B0948EB0608ABFB027C06FB02CC0BFBB2
S315080002F003CCC01B71EB0C01C1E70B460246414615
S315080003004846BDE8F08B13B5084318BF4FF0FF30D9
S315080003100146AFF30080BDE81C40704740EA010380
S3150800032070B59B072ED14FF00136042A2AD308C888
S3150800033010C99D1B9D43121F15EAC61517D0D8B2C2
S31508000340E1B2401A50EA056110D198B2A1B2401A3A
S3150800035050EA05410AD123F07F4024F07F41401A34
S3150800036050EA052102D1180EA0EB146070BDA34215
S31508000370DBD018BA21BA884201D9012070BD4FF0E6
S31508000380FF3070BD0AB9002070BD10F8013B11F8A6
S31508000390014B63B1A3420AD1521E08D010F8013BA3
S315080003A011F8014B1BB1A34201D1521EEDD1181B06
S315080003B070BD10B5203AC0F00B80B1E81850A0E81F
S315080003C01850B1E81850A0E81850203ABFF4F5AF15
S315080003D05FEA027C24BFB1E81850A0E8185044BF71
S315080003E018C918C0BDE810405FEA827C24BF51F8DE
S315080003F0043B40F8043B08BF7047D20728BF31F8D2
S31508000400023B48BF11F8012B28BF20F8023B48BF22
S3150800041000F8012B7047704770477047754600F023
S315080004202BF8AE4605006946534620F00700854678
S3150800043018B020B5FFF7E8FEBDE820404FF00006EB
S315080004404FF000074FF000084FF0000BAC46ACE841
S31508000450C009ACE8C009ACE8C009ACE8C00921F09D
S3150800046007018D46704710B50446AFF30080204655
S31508000470BDE81040FFF7B3BE004870476000002093
S3150800048001491820ABBEFEE72600020070470000AF
S3150800049010B58AB0044600200121CDE90500CDE952
S315080004A00000CDE902000490CDE9071109906946DC
S315080004B0204600F029F9002818BF00F039F8204630
S315080004C000F06EFE002818BF00F032F8204613210F
S315080004D000F0A4F8002818BF00F02AF80AB010BDEA
S315080004E0FEE7000040F2F040C2F2000000F022BA37
S315080004F040F2F040C2F2000000F01CBA40F2F040B0
S31508000500C2F2000000F016BA40F25450C2F20000DF
S3150800051000F010BA40F25450C2F2000000F00ABAD5
S3150800052040F25450C2F2000000F004BA70470000CE
S31508000530EFF3108072B600BFFEE7000070B542F216
S315080005400C060446C4F2020601F076F93168C907BA
S3150800055018D13068800644BF202030603068C00655
S3150800056007D43069C00704D1306840075CBF002053
S3150800057070BD3068C00623D40020316849072BD4E3
S3150800058034E000BF002C47D00546601C0ED1306809
S31508000590C007DED03068C0071CBF30685FEAC0708D
S315080005A0D7D03068C007F2D1D3E700BF01F044F9CD
S315080005B0401BA04230D83068C007F7D1C9E700BF52
S315080005C040F2C850C2F20000C16941F00201C1619F
S315080005D010203168490709D540F2C851C2F2000116
S315080005E0CA6940F0040042F00102CA613169C907CC
S315080005F002D13060012070BD40F2C851C2F200013C
S31508000600CA6942F00402CA61316921F00101316107
S315080006103060012070BD00BF032070BD90F8202017
S31508000620013A012A08D8006800F11402002013686C
S3150800063019431160704700BF00F1240201204FF4EE
S3150800064080211368194311607047000010B590F8AF
S3150800065020E0D0F800C0AEF1010EBEF1010FDCF8C3
S3150800066008E011D81EF0E05F18D0CEF3016EBEF197
S31508000670030F1DD100F1240101204FF400020B687D
S315080006801A430A6010BD00BF00F1240101204FF48F
S3150800069080220B681A430A6010BD00BF00F12401CE
S315080006A001204FF400120B681A430A6010BD00BF00
S315080006B0012000FA0EF01860886818B14B6840EA05
S315080006C0C30001E008684005D1E9033403430CEB95
S315080006D00E10C0F88031C0F88441097D012905D182
S315080006E000F5C2710B6843F480730B605168C0F85B
S315080006F08C11126800F5C071C0F88821002001220B
S315080007000B681A430A6010BDB0B590F82020013A6C
S31508000710012A2FD846F20060C4F20000026842F0AF
S3150800072001020260026822F47C520260D1F814E0E9
S31508000730CC694A6A0368012C43EA022202600EF079
S315080007401F024FF0010303FA02F2C3696FEA020CB3
S3150800075023EA0203C36113D02CBBC36803EA0C0364
S31508000760C360CB688C8844EA034300EBCE04236459
S315080007700B4611E0416A41F4802141620120B0BD77
S31508000780C3681343C3600B688C8844EA034300EBD1
S31508000790CE04236401F10C038C681B8843EA0443E6
S315080007A000EBCE04636443688D6943EA0204D1F81A
S315080007B010E0096A002D08BF03EA0C044460436987
S315080007C0BEF1000F43EA020408BF03EA0C0401293C
S315080007D0446102D1C1691143C161016821F0010177
S315080007E001600020B0BD00007047000010B590F809
S315080007F02040013C012C71D8D0F800C0002977D0E0
S31508000800DCF81040A40777D00CEB011CDCF8B041EB
S315080008100CF5D87E14F004049460DCF8B04119BFD6
S31508000820E4085460640D1460DEF80040002904F002
S315080008300204D460DCF8B44104F00F041461DCF857
S31508000840B441C4F307249461DCF8B4414FEA144474
S315080008505461DCF8B8211A70026802EB0112D2F86A
S31508000860B8214FEA12225A70026802EB0112D2F836
S31508000870B8214FEA12429A70026802EB0112D2F8C6
S31508000880B8214FEA1262DA70026802EB0112D2F856
S31508000890BC211A71026802EB0112D2F8BC214FEA98
S315080008A012225A71026802EB0112D2F8BC214FEAF1
S315080008B012429A71026802EB0112D2F8BC214FEA81
S315080008C01262DA71006814BF00F1100100F10C0120
S315080008D0002020220B681A430A6010BD00F124018B
S315080008E001204FF480220B681A430A6010BD00BF2E
S315080008F0DCF80C40A40787D100F1240101204FF44D
S3150800090000120B681A430A6010BD000090F8201008
S315080009100139012984BF0020704700688168826810
S315080009208068C1F38061C2F3C0621144C0F30070ED
S31508000930084470472DE9F04F81B0044600684669BF
S31508000940D0F804908768D0F80CB0D0F810A0D0F88A
S315080009501880F10704D1002530071FD426E000BF10
S31508000960F90712D00121BA07816009D4780700F186
S31508000970AB80380700F1B28004F1340002E000BF12
S3150800098004F128000168204688470025F80500F18B
S315080009908780F80300F1AB80300707D51BF01000FD
S315080009A004D0206845F400751021C160700708D589
S315080009B01BF0080005D02068616C0822C26020463A
S315080009C08847B00706D52068C068800702D0216C22
S315080009D020468847700607D51AF0100004D020680C
S315080009E045F4806510210161B00608D51AF00800A3
S315080009F005D02068E16C0822026120468847F00687
S31508000A0006D520680069800702D0A16C2046884771
S31508000A10B00308D519F0100005D02068216D102202
S31508000A20426020468847F00308D519F0080005D02B
S31508000A302068616D0822426020468847300440F1EC
S31508000A4091805FEA497040F18A8006F4807008EA6E
S31508000A50102028435FEA8871014648BF41F0020129
S31508000A60B20558BF01465FEA48700D4648BF45F0D3
S31508000A700405700558BF0D46300540F1708018F022
S31508000A8070006CD010380009052863D8DFE800F03C
S31508000A90045054585C6000BF45F008055AE000BF92
S31508000AA020684FF48071BA05816005D478050FD4A3
S31508000AB0380517D4A16B00E0E16A20468847F80399
S31508000AC07FF56AAF13E000BF4FF400655EE700BF2D
S31508000AD005F50055F8037FF55FAF08E04FF480553C
S31508000AE054E700BF05F58045F8037FF555AF206844
S31508000AF04FF48031BA03816006D478030CD43803E6
S31508000B0010D4E16B01E000BF216B2046884730070F
S31508000B103FF544AF4AE700BF05F5004530073FF506
S31508000B203DAF43E705F5803530073FF537AF3DE77D
S31508000B3045F010050EE000BF45F020050AE000BFAD
S31508000B4045F0400506E000BF45F0800502E000BF1D
S31508000B5045F480752068816921F0700181612068FB
S31508000B600421416055B1606AA16D40EA050220463C
S31508000B70626201B0BDE8F04F084700BF01B0BDE8AA
S31508000B80F08F00002DE9F041002861D0044690F866
S31508000B902000002849D141F28D1141F2012541F288
S31508000BA0092241F29118C0F60001C0F60005C0F608
S31508000BB0000241F2112341F20D20C0F60008C0F6EA
S31508000BC0000341F2FD1641F20527C0F60000C4E90C
S31508000BD00A5204F130026164E16D41F2991C41F256
S31508000BE0951EC0F60006C0F60007C8C2C4E90F087D
S31508000BF041F29D1041F2152240F2E973C0F6000C4D
S31508000C00C0F6000EC0F60000C0F60002C0F60003EB
S31508000C10C4E912CE20656265A36521B940F6115173
S31508000C20C0F60001E165204688472068016841F062
S31508000C300101016000F000FE054600BF206841681A
S31508000C40C90709D100F0F8FD401B0B28F6D314E0BC
S31508000C500120BDE8F08100BF016821F002010160B2
S31508000C6000F0EAFD054600BF2068416889070FD5F0
S31508000C7000F0E2FD401B0B28F6D3606A052140F41C
S31508000C8000306062012084F82010BDE8F08100BFC2
S31508000C90217E0268012922F0800208BF80320260A4
S31508000CA0617E0268012922F0400208BF40320260D4
S31508000CB0A17E0268012922F0200208BF20320260C4
S31508000CC0E17E0268012922F0100218BF1032026084
S31508000CD0217F0268012922F0080208BF0832026053
S31508000CE0617F0268012922F0040208BF043202600B
S31508000CF0271D8ECF66691A433A4332430139114399
S31508000D00C16100200121606284F82010BDE8F081ED
S31508000D1070B586B0006846F60001C4F20001884244
S31508000D204FF00001CDE90411CDE9021146D046F293
S31508000D300041C4F20001884240F0A58040F2EC412F
S31508000D40C2F200010A6841F21C00C4F20200531CF8
S31508000D500B6042B9016841F000710160016801F059
S31508000D6000710191019950F8041C40F6000441F005
S31508000D70040140F8041C50F8040CC4F2010400F005
S31508000D800400019001984FF400600290002002AD23
S31508000D90CDE903002046294600F03EFC4FF480507A
S31508000DA0029002200390032005902046294600F071
S31508000DB033FC1525142413264DE000BF41F21C0010
S31508000DC0C4F20200016841F080610160016801F027
S31508000DD080610191019940F2EC41C2F200010A6872
S31508000DE0531C0B6042B9016841F00071016001684B
S31508000DF001F000710191019950F8041C02AE41F00E
S31508000E00080140F8041C50F8040C314600F00800AC
S31508000E1001900198202002900020CDE9030040F6B9
S31508000E200000C4F2010000F58065284600F0F4FBD6
S31508000E300220039003204024059028463146029458
S31508000E4000F0EAFB0420C4F201000168412541F0E4
S31508000E50E8613F26016030460021002200F09CFD33
S31508000E60304600F089FD20460021002200F094FD5E
S31508000E70204600F081FD28460021002200F08CFD66
S31508000E80284600F079FD06B070BD0000BAB190F8AA
S31508000E902030012B10D10E2911D8DFE801F00923E3
S31508000EA0272B2F33373B3F43474B4F1B1F0000BFB2
S31508000EB082620020704700BF90F8203033B1416A43
S31508000EC041F4800141620120704700BF0E2905D018
S31508000ED00D29F4D1C2650020704700BF02660020C4
S31508000EE0704700BFC2620020704700BF026300203F
S31508000EF0704700BF42630020704700BF826300202E
S31508000F00704700BFC2630020704700BF026400201C
S31508000F10704700BF42640020704700BF826400200B
S31508000F20704700BFC2640020704700BF02650020FA
S31508000F30704700BF42650020704700BF82650020E9
S31508000F407047000070B58CB005AC03AB0021224693
S31508000F50FFF74CFCDDE90760042E08BF043425685A
S31508000F609DF82440022801D1012006E024B16846F4
S31508000F7003A92246FFF71DFA002040F2E001C2F25B
S31508000F8000018A788B79013202F00F029A421DD04D
S31508000F90321F8B7840F2EC06B2FA82F2C2F20006F1
S31508000FA0520906EB031383F8052283F80602DDE9E6
S31508000FB00020C3F8005283F80442C3F80C02C3F8B1
S31508000FC008228878013000F00F008870002001F0B0
S31508000FD0B5FB0CB070BD000070B58CB005AC03ABAA
S31508000FE000212246FFF702FCDDE90760042E08BF50
S31508000FF0043425689DF82440022801D1012006E022
S3150800100024B1684603A92246FFF7D3F9002040F227
S31508001010E001C2F20001CA78CB79013202F00F0270
S315080010209A421DD0321FCB7840F2EC06B2FA82F211
S31508001030C2F20006520906EB031383F8052383F868
S315080010400603DDE90020C3F8005383F80443C3F818
S315080010500C03C3F80823C878013000F00F00C870E5
S31508001060012001F06BFB0CB070BD0000F0B58BB031
S3150800107004AC02AB012122460127FFF7B7FBDDE9E5
S315080010800660042E08BF043425689DF8204002280F
S3150800109006D024B1684602A92246FFF78AF9002736
S315080010A040F2E000C2F2000081788279013101F055
S315080010B00F0191421DD0311F827840F2EC03B1FA3C
S315080010C081F1C2F20003490903EB021282F8051204
S315080010D0DDE90031C2F8005282F8044282F806724D
S315080010E0C2F80C12C2F808328178013101F00F01FA
S315080010F08170002001F022FB0BB0F0BDF0B58BB07B
S3150800110004AC02AB012122460127FFF76FFBDDE99C
S315080011100660042E08BF043425689DF8204002287E
S3150800112006D024B1684602A92246FFF742F90027ED
S3150800113040F2E000C2F20000C178C279013101F044
S315080011400F0191421DD0311FC27840F2EC03B1FA6B
S3150800115081F1C2F20003490903EB021282F8051372
S31508001160DDE90031C2F8005382F8044382F80673B9
S31508001170C2F80C13C2F80833C178013101F00F0127
S31508001180C170012001F0DAFA0BB0F0BD704700001B
S315080011907047000070470000704700007047000065
S315080011A0B0B5044690F8200001281DD1022084F825
S315080011B020002068016821F00101016000F03CFB75
S315080011C0054600BF20684068C00713D000F034FB0E
S315080011D0401B0B28F6D3606A40F400306062052095
S315080011E084F820000120B0BD606A40F400206062E7
S315080011F00120B0BD00206062B0BD0000704700004D
S3150800120070470000704700007047000070470000F4
S315080012107047000070470000F0B581B042F2100434
S31508001220C4F20204E5684CF25030FFF787F908B1BA
S3150800123001B0F0BD40F2C856C2F200060020F061C7
S31508001240206840F020002060206840F040002060C0
S315080012504CF25030FFF772F92168002821F020017E
S315080012602160E5D14CF25030FFF768F90028DFD14C
S315080012700027F761206840F020002060206840F0D1
S31508001280400020604CF25030FFF758F921680028DA
S3150800129021F020012160CBD1206815F0020140F031
S315080012A0100008BFA52720604FF60000C1F6FF70A2
S315080012B007804CF25030FFF741F9216821F0100100
S315080012C0216001B0F0BD00000721016042F21C0157
S315080012D0C4F202014A6882600A6892074FF0000267
S315080012E058BF6FF05A0202740968C1F3820141744B
S315080012F0704700002DE9F04381B040F2C855C2F2AC
S315080013000005297E012903D1022001B0BDE8F0833A
S31508001310016804460120CA07287629D18A0700F100
S31508001320DF804A0700F11281090740F135816669B5
S31508001330247E4CF25030FFF701F9002840F02C814A
S31508001340002042F21007E861C4F20207386840F04C
S31508001350100038604CF250303480FFF7EFF83968E7
S31508001360002821F01001396008BF002014E100BFF1
S3150800137042F21009C4F20209D4E90107D9F810604B
S3150800138001281FD14CF25030FFF7D8F8002840F05A
S3150800139003810020E861FFF73FFF002840F0FC804A
S315080013A026EA0707D9F80010F8B24FF60808C1F67A
S315080013B0FF7841F01001FF28C9F8001020D100205D
S315080013C027E000BF4CF25030FFF7B8F8002840F08D
S315080013D0E3800020E861FFF71FFF002840F0DC806B
S315080013E03743D9F80010F8B24FF60808C1F6FF7867
S315080013F041F01001FF28C9F800102FD1002036E06F
S31508001400B8F800100840A8F800004CF25030FFF772
S3150800141095F860B9390AC9B2FF2908D0B8F80200A8
S315080014200840A8F802004CF25030FFF787F860B978
S31508001430C7F30741FF2908D0B8F804000840A8F800
S3150800144004004CF25030FFF779F8E0BB390EFF295B
S3150800145039D0B8F8060008402CE000BFB8F80010EC
S315080014600843A8F800004CF25030FFF767F860B957
S31508001470390AC9B2FF2908D0B8F802000843A8F803
S3150800148002004CF25030FFF759F860B9C7F307412C
S31508001490FF2908D0B8F804000843A8F804004CF25D
S315080014A05030FFF74BF870B9390EFF290BD0B8F852
S315080014B0060008434FF60801C1F6FF71C8804CF2D2
S315080014C05030FFF73BF8D9F80010002821F010013A
S315080014D0C9F8001060D1216800208A077FF521AF7E
S315080014E0267C4CF25030FFF729F8002854D142F2F6
S315080014F010070020C4F20207E861386840F02000AF
S315080015003860386840F0400038604CF25030FFF7D9
S3150800151015F8396821F020013960E8BB386840F0D1
S31508001520100038604FF60800C1F6FF7020F8086C06
S315080015304CF25030FFF702F8396821F01001396093
S3150800154050BB216800204A077FF5EEAE667C4CF258
S315080015505030FEF7F3FFF8B9002042F21007E861B1
S31508001560C4F2020738684FF6080140F010003860E8
S3150800157046F08800C1F6FF7121F8060C4CF250308F
S31508001580FEF7DCFF396821F01001396020B92168BF
S31508001590002009073FF5CBAE0021297601B0BDE84A
S315080015A0F083000000F034BA42F21001C4F20201DE
S315080015B0086820F4007200200A60704742F20800AA
S315080015C0C4F202008168890544BF0120704740F2D1
S315080015D02311C4F26751016048F6AB11CCF6EF51FE
S315080015E0016000207047000042F20400C4F20200C5
S315080015F0C16809065CBF0020704740F22311C4F297
S315080016006751016048F6AB11CCF6EF510160C0682E
S31508001610C0B2C009704700002DE9F04F82B041F210
S315080016200042C4F201020E680423904208BF032355
S31508001630002E009300F0F68040F20C4E4FF6FF7C29
S31508001640C4F2010E00220124C1F2100C4FF0000A68
S315080016504FF0000943E000BF012502F00C040F27F4
S31508001660A7402BEA070705FA04F43C4343F826404B
S31508001670D1F804B040F20045C4F201055FEACB3365
S315080016802B6854BF23EA080343EA08032B606B68F8
S315080016905FEA8B3454BF23EA080343EA08036B6006
S315080016A05FEACB24AB6854BF23EA080343EA08037E
S315080016B05FEA8B24AB60DEF800304FF0010454BFBC
S315080016C023EA080343EA0803CEF800300E680AF155
S315080016D0010A36FA0AF302F1040200F0A38004FABA
S315080016E00AF816EA080FF1D04B68634512DC122B8C
S315080016F056D8DFE803F0350B454955555555555528
S31508001700555555555555554D510000BFD1F80C90B6
S3150800171046E000BF4FF6FF77C1F22107BB420FDC58
S315080017200027C1F21107BB421AD00027C1F21207DF
S31508001730BB4215D00027C1F22107BB4210D02FE0CB
S315080017400027C1F22207BB420AD00027C1F231079F
S31508001750BB4205D00027C1F23207BB4220D100BFE9
S315080017608B684BB1012B14BFC0F81480C0F81080E9
S315080017704FF0080914E000BF4FF0040910E000BF5D
S31508001780CB6803F108090BE04FF0000908E000BF39
S31508001790CB6803F1040903E0CB6803F10C0900BF29
S315080017A013460546BAF1080F24BF203B04352E68B8
S315080017B00F279F40BE4309FA03F333432B60CB79C7
S315080017C0DB067FF583AF41F21804C4F202042368EE
S315080017D04FEA9A0643F001032360236840F60004A3
S315080017E003F001030193019B40F20043C4F2010395
S315080017F0A3F57E7353F826B0C4F20104A0420FD0B5
S3150800180040F60044C4F20104A0423FF425AF41F279
S315080018100004C4F20104009DA04208BF02251CE78B
S3150800182000251AE702B0BDE8F08F0000806808407E
S3150800183018BF01207047000040F2E850C2F20000CD
S3150800184000687047B0B538B304460068D4E9011299
S315080018504CF6CC43036045F2555303604160826001
S31508001860FFF7EAFF2168CA6892070FD0054602E02B
S31508001870C86880070AD0FFF7DFFF401B21682828C1
S31508001880F6D3C8688007F3D00320B0BD4AF6AA206D
S3150800189008600020B0BD00BF0120B0BD01684AF64F
S315080018A0AA2200200A60704740F2540040F2E8512C
S315080018B0C2F20000C2F2000100780A68104408600B
S315080018C07047000080B542F20000C4F202000168C9
S315080018D041F010010160032000F08AF8002000F0B2
S315080018E005F800F027F8002080BD000070B540F22A
S315080018F05406C2F2000640F25C013278C2F20001D8
S315080019004FF47A730968B3FBF2F20446B1FBF2F1BD
S31508001910084600F0D9FB0F2C4FF0010508D838B956
S315080019204FF0FF3021460022002500F035F874609C
S31508001930284670BD82B041F21800C4F20200016860
S31508001940022241F001010160016801F001010191E3
S315080019500199416841F080514160406800F080502B
S31508001960009000980420C4F20100016862F31A612D
S31508001970016002B070470000002848BF704700F0B9
S315080019801F01012202FA01F14EF200124009CEF2BD
S31508001990000242F82010704710B54EF60C5CCEF2E5
S315080019A0000CDCF80030C3F3022E8EF00704042C7A
S315080019B028BF0424BEF103034FF0FF3E0EFA04F4D9
S315080019C038BF0023A14399400EFA03F39A43114303
S315080019D000F00F02043A624409010C3200F1604338
S315080019E0B0F1FF3FC8BF03F56442117010BD000097
S315080019F04EF60C51CEF200010A684FF6FF031A4064
S31508001A0060F30A2242F0806040F0FD70086070477B
S31508001A1000F0C6FC2DE9F04381B0002800F087806D
S31508001A2042F20008C4F202080446D8F800000D463F
S31508001A3000F0070088420CD2D8F8000020F0070012
S31508001A402843C8F80000D8F8000000F00700A842AC
S31508001A506DD1206841F204098107C4F2020917D53D
S31508001A60410705D5D9F8001041F4E061C9F800101E
S31508001A70010705D5D9F8001041F46051C9F80010DE
S31508001A80D9F80010A26821F0F0011143C9F8001036
S31508001A90C00743D1D8F8000000F00700A8420CD9C7
S31508001AA0D8F8000020F007002843C8F80000D8F846
S31508001AB0000000F00700A84239D12068410707D581
S31508001AC0D9F80010E26821F4E0611143C9F8001062
S31508001AD0000708D5D9F80000216920F4605040EACB
S31508001AE0C100C9F80000D9F8002047F6400002F006
S31508001AF00C010429C0F27D1079D0082944D142F698
S31508001B001001C2F38344C0F60001095DD20341D433
S31508001B1040F60010C0F23D00484368E060680228BD
S31508001B200AD001282AD159F8041C890308D40120AF
S31508001B3001B0BDE8F08300BF59F8041C8901F6D549
S31508001B40D9F8001021F003010843C9F80000FFF78F
S31508001B5073FE064641F28837D9F80000616800F03E
S31508001B600C00B0EB810F95D0FFF766FE801BB842DC
S31508001B70F2D9032001B0BDE8F08300BF59F8041C70
S31508001B808907D4D5DCE700BF41F20020C0F27A000D
S31508001B902DE000BFD9F8282042F63A1302F00F02CA
S31508001BA0C0F60003D9F828709A5CFB0304D44843AE
S31508001BB0B0FBF2F015E000BFD9F82830D9F8287044
S31508001BC04FF28006C7F30327C0F2FA26C3F30313BE
S31508001BD007FB00600133A0FB0101A3FB0223FEF70C
S31508001BE025FBA4F10D01B1FA81F14909C840D9F8DC
S31508001BF0001042F61E02C1F30311C0F60002515C42
S31508001C0040F25C0220FA01F140F25800C2F20000EC
S31508001C100068C2F200021160FFF768FE002001B0FA
S31508001C20BDE8F0832DE9F04182B0002800F0FE817E
S31508001C300446007841F20006C007C4F202060CD03A
S31508001C40706800F00C00042840F09E80306880031D
S31508001C5003D5A068002800F0E981207880071BD505
S31508001C60706810F00C0F09D0706800F00C00082896
S31508001C7040F0A8807068C00300F1A480306880072F
S31508001C8003D56069012840F0D1813068A16920F048
S31508001C90F80040EAC10030602078000736D4207882
S31508001CA040074BD4E06A002800F0A8817168C90390
S31508001CB008D5716801F00C01082903D1F16AC90336
S31508001CC000F1B481022840F0E5803068C00006D5EE
S31508001CD0F06A616B00F0F000884240F0A78168273F
S31508001CE0C4F2422700203860FFF7A6FD054600BF6C
S31508001CF03068000140F16481FFF79EFD401B6428AF
S31508001D004FF00300F4D902B0BDE8F081E06900287D
S31508001D1000F082806820C4F242200121C0F818141D
S31508001D20FFF78AFD054600BF706A800700F18880C4
S31508001D30FFF782FD401B0228F6D93CE1F06910F056
S31508001D40805808D1F06940F08050F061F06900F0E1
S31508001D5080500090009847F20007C4F200073868E0
S31508001D60C00547D4386840F480703860FFF764FDD2
S31508001D70054600BF3868C0053CD4FFF75DFD401B2B
S31508001D806428F7D917E100BF706800F00C0008282E
S31508001D9003D17068C0033FF559AFA068002800F06A
S31508001DA0DD80B0F5A02F00F0F180B0F5803F00F09F
S31508001DB0F180306820F480303060306820F480206C
S31508001DC0EBE000BF6069002840F26800C4F24220D8
S31508001DD076D0012140F8681CFFF72EFD054600BFA6
S31508001DE0306880073FF551AFFFF726FD401B0228F4
S31508001DF0F6D9E0E02069002874D0052800F08C8028
S31508001E00012800F08D80306A20F001003062306AC7
S31508001E1020F0040087E000BF6820C4F242200021B9
S31508001E20C0F81814FFF708FD054600BF706A80075A
S31508001E307FF535AFFFF700FD401B0228F6D9BAE05B
S31508001E4040F25C00C2F20000006844F6D351C1F2C9
S31508001E506201A0FB0101480A019000BF00BF01987A
S31508001E60411E002801913FF41AAF00BF0198411E98
S31508001E70002801913FF413AF00BF0198411E0028C6
S31508001E8001913FF40CAF00BF0198411E0028019153
S31508001E90E4D104E7F06A002120F48030F06268207B
S31508001EA0C4F242200160FFF7C7FC0546306800010E
S31508001EB040F1A480FFF7C0FC401B6428F6D97AE0FD
S31508001EC0002140F8681CFFF7B7FC05463068800714
S31508001ED07FF5E2AEFFF7B0FC401B02284FF0030087
S31508001EE0F4D910E7306A20F001003062306A20F039
S31508001EF004003062FFF7A0FC054641F2883700BFB0
S31508001F00306A800720D5FFF797FC401BB8424FF090
S31508001F100300F5D9F7E600BF306A40F004003062E6
S31508001F20306A40F001003062FFF786FC054641F250
S31508001F30883700BF306A800706D4FFF77DFC401B50
S31508001F40B842F7D937E000BFB8F1000F7FF4AAAE60
S31508001F50F06920F08050F061A4E600BF306820F4F4
S31508001F6080303060306820F480203060FFF764FCF1
S31508001F70054600BF306880037FF56FAEFFF75CFC4F
S31508001F80401B64284FF00300F4D9BCE6306840F4DF
S31508001F9080203060306840F480303060FFF74CFCB9
S31508001FA0054600BF306880033FF557AEFFF744FC8F
S31508001FB0401B6428F6D9032002B0BDE8F08100BFB3
S31508001FC0F06AD4E90C2120F0F0000843F062F06AC8
S31508001FD020F470601043F06201203860FFF72CFC93
S31508001FE0054600BF3068000108D4FFF725FC401BF2
S31508001FF064284FF00300F5D985E600BF256A8DB140
S31508002000706800F00C00082814D1012D0ED07068F5
S31508002010616A00F480328A4208D1A16A00F470101D
S31508002020884203D1002002B0BDE8F081012002B049
S31508002030BDE8F0816827C4F24227002047F8080C5B
S31508002040FFF7FAFB022D05460CD100BF3068800168
S3150800205014D5FFF7F1FB401B02284FF00300F5D912
S3150800206051E600BF30688001DCD5FFF7E5FB401B71
S3150800207002284FF00300F5D945E600BF606AB0F5BF
S31508002080803F09D1F16A6268E3681143F162F16A37
S3150800209021F00F011943F1627168A26A21F47411E3
S315080020A0104308437060012047F8080CFFF7C4FB8B
S315080020B0044630688001B5D4FFF7BEFB001B022832
S315080020C04FF00300F5D91EE6411E0020B0EB116F54
S315080020D01CBF012070474EF21002CEF2000251607A
S315080020E04EF62351CEF20001F0230B7007219060C3
S315080020F011607047FEE7000040F2E002C2F20002FB
S3150800210002EB41021118125C084610F8043F9A4285
S3150800211002BF0020C0B270470A7803789A4205D9F0
S3150800212009780078081AC0B2704700BF00780978A5
S31508002130081A1030C0B2704710B540F2F04046F2A7
S315080021400041C2F20000C4F20001042200234FF04D
S31508002150012480E80E0000F10C014FF4602C4FF4C6
S31508002160801E81E8085084618383FEF70BFD0028F2
S3150800217008BF10BDBDE81040FEF7DAB910B540F249
S31508002180545046F60001C2F20000C4F200010422CF
S3150800219000234FF0012480E80E0000F10C014FF4F3
S315080021A0602C4FF4801E81E8085084618383FEF713
S315080021B0E9FC002808BF10BDBDE81040FEF7B8B915
S315080021C0F0B585B0002641F218000496C4F2020064
S315080021D0016840F6000441F0200101600168C4F27C
S315080021E0010401F0200100910099016801AD41F058
S315080021F0040101600168012701F0040100910099BA
S31508002200016841F010010160016801F010010091B8
S315080022100099016841F0080101600068294600F04C
S315080022200800009000984FF40040CDE901062046CA
S315080022300397FFF7F1F94FF4E05001A9C1C104F57E
S3150800224000602946FFF7E8F905B0F0BD80B540F211
S31508002250B85043F20001C2F20000C4F200010022A5
S3150800226040F6FF7380E80E00FFF7ECFA002808BF77
S3150800227080BDBDE88040FEF75BB90000FEE70000C0
S31508002280FEE700007047000080B540F2E003C2F2A6
S31508002290000303EB410303EB000C1CF804EF1B5C83
S315080022A09E4504BF022080BD40F2EC039CF800E086
S315080022B0C2F2000303EB412101EB00204FEA0E11A5
S315080022C0415800EB0E10116041688368C068516080
S315080022D09360D0609CF80000013000F00F008CF885
S315080022E00000002080BD0000B0B5012884BF03208F
S315080022F0B0BD40F2E003C2F2000303EB41031C5CED
S3150800230003EB000C01349CF8043004F00F049C42E3
S3150800231004D1012400F012FA2046B0BD40F2EC04C4
S31508002320C2F200049CF8003004EB412101EB0021C5
S3150800233001EB03144FEA031E1368556841F80E3083
S3150800234065609168D268A160E2609CF8001000247C
S31508002350013101F00F018CF8001000F0EFF920466A
S31508002360B0BD000070470000FFF79EBA7047000036
S31508002370FEE700004EF60C50BFF34F8FCEF200007A
S315080023800168042201F4E061C0F2FA5211430160C7
S31508002390BFF34F8F00BF00BF00BF00BFFAE70000C2
S315080023A04EF60C50BFF34F8FCEF2000001680422A0
S315080023B001F4E061C0F2FA5211430160BFF34F8F96
S315080023C000BF00BF00BF00BFFAE7000070B50C46AB
S315080023D0096840F29D52914205461DDD40F29E5025
S315080023E0814241D040F2BC5081426FD040F27960C0
S315080023F0814240F0948040F20006C2F2000632465E
S3150800240012F8340B0021FFF76FFF16F8440B002172
S315080024103246FFF769FF82E0B1F5F97F6AD040F2EC
S315080024205B5081427BD1207A617A800040EA911024
S315080024304CF6CD41484340F2E80140F20006C00C94
S31508002440C2F20001C2F2000648703570324612F830
S31508002450140B0021FFF748FF16F8240B002132461B
S31508002460FFF742FF5BE000BF40F2E800C2F200005F
S315080024704078E6214843800841F27B41E37A4843A5
S31508002480860D1B09217A63F31F1642F63A03C0F636
S31508002490000394F809C0595CA27A81EA0C01595CD8
S315080024A0800B5140595C227B7140C9B2595C62F37A
S315080024B002004140C9B2595C627BE6725140595CE0
S315080024C0A27B20735140595CE17328E0607BC0060B
S315080024D040F2E800C2F2000005D4217A627A890047
S315080024E041EA921141804188890821724088800119
S315080024F0607214E040F2E800C2F20000017801318F
S315080025000170017804290AD3002140F20002017003
S31508002510C2F2000212F8040B0021FFF7E5FEB5FA35
S3150800252085F0400900212246BDE87040FFF7DCBE71
S3150800253094B0FFF7C7F9092006904FF480300225BA
S3150800254008900790CDE90E504FF4E010CDE910053C
S315080025504FF4C06004211290402000240991012103
S31508002560139006A80C94CDE90A440B910D91FFF738
S3150800257059FB28B1EFF3108072B600BFFEE700BF23
S315080025800F20CDE901054FF48060CDE9040401A8C8
S3150800259002210394FFF73EFA20B1EFF3108072B6DA
S315080025A0FEE700BF7020C4F2422001210160FFF758
S315080025B01BF8FFF703F842F20C0040F2C008C4F219
S315080025C002000421C2F20008016008F10400FEF7C7
S315080025D07BFE98F81400A5280DD10221404640F844
S315080025E0041F00210174FEF785FE002818BFFFF7B7
S315080025F00FFAFEF7D7FFFEF7D7FF42F62E014FF286
S31508002600E870C0F60001C1F6FF700C22FDF786FEE1
S31508002610002840F08F80FFF7D3FDFFF78DFDFFF709
S31508002620ADFDFFF713FE41F20004C4F20104204693
S315080026304FF48051FFF7FAF820464FF40061FFF790
S31508002640F5F820464FF48061FFF7F0F8A4F500602E
S315080026504FF40041FFF7EAF840F2F044C2F20004F2
S3150800266040F64572C0F6000220460621FEF70EFC2B
S3150800267041F26D02C0F6000220460821FEF706FC6C
S3150800268040F25455C2F2000540F6D972C0F600026F
S3150800269028460621FEF7FAFB41F2FD02C0F60002C3
S315080026A028460821FEF7F2FB2046FDF7F1FE2846EC
S315080026B0FDF7EEFE40F2B856C2F2000606AF09E094
S315080026C0002000F03BF8012000F038F82068806907
S315080026D0286880693046FFF7E1F8FFF7ADF8D8F8C3
S315080026E00010401AB0F57A7F05D3FFF7A5F8C8F8A9
S315080026F0000000F021F800200121FFF7FDFC40B1A1
S31508002700002001213A46FFF7BFFD00203946FFF7B2
S315080027105DFE01200121FFF7EFFC0028D0D0012043
S3150800272001213A46FFF7B0FD01203946FFF74EFE74
S31508002730C6E700BFFFF71EFE70470000F0B58DB074
S3150800274040F2E007C2F200073E180546385C3179C8
S31508002750884208D0785D3179884207D9785D317921
S31508002760401A000608D10DB0F0BD00BF3079795D7A
S31508002770081A10300006F6D023A050F82540204647
S31508002780FEF7C4F80328EED13079795D884209D17D
S31508002790042000220690CDE9072202A80AA9FDF71F
S315080027A008FE22E040F2EC013079C2F2000101EBAA
S315080027B0052101EB0013000108581A7959799F7908
S315080027C0DD689B680029CDE90A35337918BF0121F0
S315080027D0013303F00F0333718B0004AE46F8210072
S315080027E00693089257B10220079004A902AA01ABE2
S315080027F02046FDF72BFF0DB0F0BD00BF0020002AD4
S315080028000790CAD1F1E700BFF00400205405002064
S31508002810000004050607080900000000000D000076
S3150800282000000000000001020304060708093344FB
S315080028305566112233447766554400858F0A9B1ED8
S315080028401491B3363CB928ADA722E3666CE978FD46
S31508002850F77250D5DF5ACB4E44C143C6CC49D85D32
S3150800286057D2F0757FFA6BEEE461A0252FAA3BBE1E
S31508002870B43113969C19880D07828603098C1D9816
S31508002880921735B0BA3FAE2B21A465E0EA6FFE7BFE
S3150800289071F4D65359DC4DC8C247C5404ACF5EDBF2
S315080028A0D15476F3F97CED6862E726A3A92CBD38E6
S315080028B032B795101A9F0E8B8104890C06831297DE
S315080028C09D183ABFB530A1242EAB6AEFE560F174C6
S315080028D07EFBD95C56D342C7CD48CA4F45C051D4B2
S315080028E0DE5B79FCF673E2676DE829ACA623B2379E
S315080028F03DB89A1F159001848E0B0F8A8005941196
S315080029001B9EBC3933B627A2A82DEC6963E677F27D
S31508002910F87D5FDAD055C4414BCE4CC9C346D75271
S3150800292058DDFF7A70F564E1EB6EAF2A20A534B165
S31508002930BB3E1C9993168702088D010203040506FF
S315080029400708090A0B0C0D0E0F1000007029000865
S3150800295000000020600000008C010008D029000853
S3150800296060000020900B0000A8010008000000008D
S31508002970020000005503000008000000140A13971F
S3150800298010004000E3050000050000008E0000006E
S3150800299080000000C50500000800000084010679D3
S315080029A0000C000003060000010000000000000003
S315080029B000000000050600000100000000000000FD
S315080029C00000000001000000100000000024F400D0
S70508000151A0
